:020000040801F1
:10000000A81400207502010809280108DD22010852
:1000100005280108CF04010801560108000000006E
:10002000000000000000000000000000392C010862
:1000300011050108000000007B2A01084D2C010871
:100040008F0201088F0201088F0201088F02010848
:100050008F0201088F0201088F0201088F02010838
:100060008F0201088F0201088F0201088F02010828
:100070008F0201088F0201088F0201088F02010818
:100080008F0201088F0201088F02010800000000A2
:100090000000000000000000000000008F020108C6
:1000A0008F0201088F0201088F0201088F020108E8
:1000B0008F0201088F0201088F0201088F020108D8
:1000C0008F0201088F0201088F0201088F020108C8
:1000D0008F0201088F0201088F0201080000000052
:1000E0008F0201088F0201088F0201080000000042
:1000F0000000000000000000000000008F02010866
:10010000000000008F0201088F0201088F02010821
:1001100000000000000000000000000000000000DF
:100120008F0201088F0201088F0201088F02010867
:100130008F02010800000000000000000000000025
:100140000000000000000000000000000D28010871
:100150008F0201088F0201088F0201088F02010837
:100160008F0201088F02010800000000000000005B
:10017000000000000000000000000000000000007F
:10018000000000008F0201080000000000000000D5
:100190008F02010800F002F800F05CF80AA090E875
:1001A000000C82448344AAF10107DA4501D100F032
:1001B00051F8AFF2090EBAE80F0013F0010F18BFA3
:1001C000FB1A43F00103184798600000B860000074
:1001D0000A444FF0000C10F8013B13F0070408BF6D
:1001E00010F8014B1D1108BF10F8015B641E05D00B
:1001F00010F8016B641E01F8016BF9D113F0080FC0
:100200001EBF10F8014BAD1C0C1B09D16D1E58BF51
:1002100001F801CBFAD505E014F8016B01F8016B88
:100220006D1EF9D59142D6D37047000000230024FB
:1002300000250026103A28BF78C1FBD8520728BFF6
:1002400030C148BF0B6070471FB505F0B9FB1FBD3B
:1002500010B510BD00F006F91146FFF7F5FF05F0E7
:10026000EDF900F024F903B4FFF7F2FF03BC00F04E
:1002700027F900000948804709480047FEE7FEE7E4
:10028000FEE7FEE7FEE7FEE7FEE7FEE7FEE7FEE746
:1002900004480549054A064B704700000D2D01082A
:1002A00095010108A80E0020A8140020A810002025
:1002B000A810002053EA020C00F069802DE9F04BF1
:1002C0004FF00006002B1FBFB3FA83F503FA05F4C5
:1002D00024FA05F65E4012BF1643B2FA82F502FA1E
:1002E00005F4C5F120051EBF22FA05FC44EA0C0402
:1002F000203556EA044C4FEA144418BF641C4FF0F2
:1003000000084FF00009904271EB030C39D300292B
:1003100019BFB1FA81F701FA07F6B0FA80F700FACF
:1003200007F6C7F120071EBF20FA07FC46EA0C06B5
:100330002037B6FBF4FCA7EB0507103F07F01F0BB7
:10034000CBF120060CFA0BFB2CFA06F644BFB346A1
:100350000026202FA4BF5E464FF0000B5BEA060C80
:1003600008BF4FF0010B19EB0B09ABFB027C48EB0C
:100370000608C01B06FB02CC0BFB03CC71EB0C0187
:10038000C1E70B46024641464846BDE8F08B13B52F
:100390004FF000004FF00001AFF30080BDE81C40BB
:1003A000704710B5203AC0F00B80B1E81850203AE1
:1003B000A0E81850B1E81850A0E81850BFF4F5AF05
:1003C0005FEA027C24BFB1E81850A0E8185044BF8F
:1003D00018C918C0BDE810405FEA827C24BF51F8FC
:1003E000043B40F8043B08BF7047D20728BF31F8F0
:1003F000023B48BF11F8012B28BF20F8023B48BF41
:1004000000F8012B70474FF0000200B513469446E8
:100410009646203922BFA0E80C50A0E80C50B1F15C
:100420002001BFF4F7AF090728BFA0E80C5048BF70
:100430000CC05DF804EB890028BF40F8042B08BF0E
:10044000704748BF20F8022B11F0804F18BF00F80A
:10045000012B704770477047704700000048704795
:10046000480E00207546FFF7F9FFAE4605006946C5
:10047000534620F00700854618B020B5FFF708FF67
:10048000BDE820404FF000064FF000074FF0000895
:100490004FF0000B21F00701AC46ACE8C009ACE816
:1004A000C009ACE8C009ACE8C0098D46704710B57A
:1004B0000446AFF300802046BDE81040FFF7D3BEEE
:1004C00001491820ABBEFEE726000200704700BFBE
:1004D000FEE70020704700207047000070B504461A
:1004E0000D46044802F004FE10B14FF0FF3070BD1D
:1004F0000020FCE744040020002004494870C87034
:10050000087148718871C87108727047280000200E
:10051000704772B600BFFEE710B52148C078214988
:1005200008701F480079487008464078E82803D0D2
:1005300008460078E8282DD100224FF400511A48CF
:1005400000F04AF9002022E000211CE000EB40020C
:10055000164B03EB820232F81120124B1B889A4291
:1005600010D100EB4002124B03EB820232F8112053
:100570000C4B1A801A461278094BDA70094A5278E5
:100580001A7102E0491C0629E0DB00BF401C042868
:10059000DADB04E001225103034800F01DF910BD2D
:1005A000280000200E00002000080240E861010839
:1005B0001862010870B50A480468001D0568001D2E
:1005C0000668344454B108220649204602F019F85E
:1005D000042204491031284602F013F870BD0000CF
:1005E000107AFF1F7A00002070B5044600F0FAF878
:1005F00006462546681C10B104480078054400BF33
:1006000000F0F0F8801BA842FAD370BD140100205E
:10061000F8B502460B460025002400200021C7E063
:10062000012606FA01F51E6806EA0504AC4274D1FB
:100630001E7906F00306012E04D01E7906F003068B
:10064000022E13D190684F000326BE40B0434F00E6
:10065000DE68BE4030439060506801268E40B04353
:100660001E79C6F300168E40304350601E7906F0A6
:100670000306032E09D0D0684F000326BE40B043C6
:100680004F009E68BE403043D0601E7906F00306DE
:10069000022E13D1CF0802F1200656F827004E078C
:1006A000F70E0F26BE40B0434F07FF0E1E69BE4037
:1006B0003043CF0802F1200646F8270010684F00AB
:1006C0000326BE40B0431E7906F003064F00BE402D
:1006D000304310605E6806F44036002E67D000BFDD
:1006E00000260096344E366846F48046324F3E600F
:1006F0003E46366806F48046009600BF00BF2F4E87
:100700008F0856F827008E07370F0F26BE40B043DC
:100710002B4EB24202D1002615E048E0294EB242EB
:1007200001D101260FE0284EB24201D102260AE093
:10073000264EB24201D1032605E0254EB24201D138
:10074000042600E007268F073F0FBE4030431B4EB4
:100750008F0846F827001F4E3068A0435E6806F4F5
:10076000801606B120431B4E3060361D3068A04312
:100770005E6806F4001606B12043164E361D306042
:10078000144E361F3068A0435E6806F4003606B18A
:100790002043104E361F3060361F3068A0435E681D
:1007A00006F4803606B120430A4E083E3060491CEC
:1007B0001029FFF435AFF8BD443802400838014035
:1007C000000002400004024000080240000C024009
:1007D00000100240083C01400AB1816101E00B04B5
:1007E0008361704701480068704700000C010020D9
:1007F00070B504460CB9012070BD94F83D0028B9CD
:10080000002084F83C00204600F08CF9242084F875
:100810003D002068006820F0010021680860206821
:10082000006840F40040216808602068006820F4F7
:1008300000402168086001F081FA05465C49606863
:10084000884206D85B48854201D2012007E000209B
:1008500005E05948854201D2012000E0002001282E
:1008600000D1C9E75548B5FBF0F62068406820F094
:100870003F003043216848604D496068884201D894
:10088000701C07E04FF4967070434FF47A71B0FB20
:10089000F1F0401C2168096A21F03F0108432168FA
:1008A000086243496068884214D8681E616849003C
:1008B000B0FBF1F0401CC0F30B00042801D204206F
:1008C0003DE0681E61684900B0FBF1F0401CC0F3D8
:1008D0000B0034E0A06838B9681E616801EB410183
:1008E000B0FBF1F0401C0AE0681E616801EBC10238
:1008F00002EB0111B0FBF1F0401C40F48040C0F36A
:100900000B0008B901201AE0A06848B9681E6168A8
:1009100001EB4101B0FBF1F0401CC0F30B000CE017
:10092000681E616801EBC10202EB0111B0FBF1F03E
:10093000401CC0F30B0040F4804040F400402168AC
:10094000C9694CF6FF72914308432168C861D4E934
:10095000070108432168096821F0C00108432168A4
:100960000860D4E9031008432168896848F2FF321F
:100970009143084321688860D4E905010843216850
:10098000C96821F0FF0108432168C8602068006839
:1009900040F001002168086000202064202084F8D5
:1009A0003D000020206384F83E0000BF24E70000E3
:1009B000A086010080841E0000093D0040420F0017
:1009C0002DE9FC5F04460F4690469946DDE90CABE5
:1009D0000E9EFFF707FF054694F83D0020287DD1C5
:1009E000192301224D492046009501F037FD10B131
:1009F0000220BDE8FC9F00BF94F83C00012801D113
:100A00000220F6E7012084F83C0000BF206800685F
:100A100000F0010028B92068006840F0010021685A
:100A200008602068006820F40060216808602120C8
:100A300084F83D00402084F83E0000202064C4F883
:100A400024A0A4F82AB0608D20853548E0624B468A
:100A5000424639462046CDE9006501F061FC08B107
:100A60000120C6E731E02A463146204601F09BFDD1
:100A700050B1206C042805D12068006840F4007053
:100A8000216808600120B4E7606A00782168086185
:100A9000606A401C6062208D401E2085608D401E73
:100AA000608520684069C0F3800070B1208D60B11E
:100AB000606A007821680861606A401C6062208D6D
:100AC000401E2085608D401E6085208D0028CAD183
:100AD0002A463146204601F093FC00E01CE050B16C
:100AE000206C042805D12068006840F4007021685B
:100AF000086001207DE72068006840F400702168EC
:100B00000860202084F83D00002084F83E0000BFEB
:100B100084F83C0000BF6CE702206AE70200100086
:100B20000000FFFF10B586B00446142101A8FFF7AE
:100B30006AFC4349206888422FD100BF0020009002
:100B40004048006840F002003E49086008460068DE
:100B500000F00200009000BF00BFC02001901220F2
:100B6000029000200390032004900420059001A926
:100B70003548FFF74DFD00BF002000903148103090
:100B8000006840F400102F491031086008460068E2
:100B900000F40010009000BF50E02C49206888420B
:100BA0004CD100BF002000902648006840F00100B2
:100BB000244908600846006800F00100009000BF6A
:100BC00000BF00BF002000900846006840F002000F
:100BD00008600846006800F00200009000BF00BFF7
:100BE00088150190122002900020039003200490A9
:100BF0000420059001A91648FFF70AFD1020019076
:100C000012200290002003900320049009200590F8
:100C100001A90D48FFF7FCFC00BF00200090094827
:100C20001030006840F400000649103108600846A2
:100C3000006800F40000009000BF00BF06B010BDC7
:100C4000005400403038024000040240005C004084
:100C5000000002400348006803490978084401493C
:100C6000086070470C0100201401002010B50D48E9
:100C7000006840F400700B4908600846006840F4C2
:100C8000806008600846006840F4807008600320B7
:100C900000F0A2F80F2000F007F800F02BF8002079
:100CA00010BD0000003C024070B504460E480078BC
:100CB0004FF47A71B1FBF0F00C490968B1FBF0F523
:100CC000284601F0F1FA08B1012070BD102C07D2BE
:100CD00000222146501E00F041F80548046001E062
:100CE0000120F2E70020F0E71401002018010020A5
:100CF0001001002008B500BF002000900E480068D9
:100D000040F480400C4908600846006800F48040C8
:100D1000009000BF00BF00BF00200090081F0068C7
:100D200040F08050091F08600846006800F08050BD
:100D3000009000BF00BF08BD44380240014608468D
:100D4000002809DB00F01F0301229A4043099B00A1
:100D500003F1E023C3F8002100BF70472DE9F05FE5
:100D600080460D461646002704F04CFC07463946DF
:100D70002A46334601F00700C0F1070ABAF1040F12
:100D800002D94FF0040A01E0C0F1070AD14600F190
:100D9000040ABAF1070F02D24FF0000A01E0A0F1F5
:100DA000030AD4464FF0010A0AFA09FAAAF1010A25
:100DB0000AEA020A0AFA0CFA4FF0010B0BFA0CFBD2
:100DC000ABF1010B0BEA030B4AEA0B042146404648
:100DD00004F020FCBDE8F09F00BF00F00702064BC6
:100DE00019684FF6FF031940044B0B4343EA0221F5
:100DF000014B196000BF70470CED00E00000FA05E0
:100E0000704702461068416200207047F0B5034603
:100E100015461868446A21B944EA05401E68B06264
:100E200019E01868806A04EB1044002208E0186892
:100E300000F5827050F8220004EB1044501CC2B23E
:100E4000481E9042F3D844EA0547186800F58270BE
:100E50004E1E40F826700020F0BD10B50446D4F8B0
:100E6000080502F09CFE10BD70B504460D4605EB6A
:100E7000C50304F13C0101EB83010A692946D4F85A
:100E8000080502F087FD70BD70B504460D4605EB00
:100E9000C50304F51F7101EB83010A692946D4F8E3
:100EA000080502F0FBFD70BD10B50446D4F8080536
:100EB00002F078FE10BD2DE9F04104460D4605F024
:100EC0008000802808D105F00F0000EBC00104F17C
:100ED0003C0000EB810607E005F00F0000EBC001CD
:100EE00004F51F7000EB81063146206804F044F9D8
:100EF00007463846BDE8F08170B504460E4606F058
:100F0000800080280AD106F00F0000EBC00104F138
:100F10003C0000EB81050120687009E006F00F003D
:100F200000EBC00104F51F7000EB81050020687024
:100F300006F00F00287000BF94F8BC04012801D10E
:100F4000022070BD012084F8BC0400BF294620683F
:100F500003F0F2FB00BF002084F8BC0400BF00BF18
:100F6000EFE770B504460E4606F00F006168884250
:100F700001D9012070BD06F0800080280AD106F05A
:100F80000F0000EBC00104F13C0000EB81050120E3
:100F9000687009E006F00F0000EBC00104F51F7057
:100FA00000EB8105002068700020A87006F00F009B
:100FB000287000BF94F8BC04012801D10220D9E7B1
:100FC000012084F8BC0400BF2946206803F09CFE81
:100FD00000BF002084F8BC0400BF00BFCAE72DE9B1
:100FE000F04705460E4690461F464FF0000906F0B2
:100FF000800080280AD106F00F0000EBC00105F147
:101000003C0000EB81040120607009E006F00F0055
:1010100000EBC00105F51F7000EB8104002060703B
:1010200006F00F002070C4F80C802771607808B1BA
:1010300020782081022F01D10020607100BF95F837
:10104000BC04012802D10220BDE8F087012085F808
:10105000BC0400BF2146286803F084FA00BF0020CA
:1010600085F8BC0400BF4846EEE72DE9F041044690
:101070000E461746984606F00F0000EBC00104F537
:101080001F7000EB81052F61C5F8188000202862D1
:10109000687006F00F0028702069012800D16F6188
:1010A00006F00F0028B9227C2946206803F006FDCF
:1010B00004E0227C2946206803F0BAFE0020BDE847
:1010C000F08170B504460D4605F00F006168884256
:1010D00001D9012070BD05F0800080280AD105F0FB
:1010E0000F0000EBC00104F13C0000EB8106012081
:1010F000707007E005EBC50104F51F7000EB810679
:10110000002070700120B07005F00F00307000BF3B
:1011100094F8BC04012801D10220DBE7012084F807
:10112000BC0400BF3146206803F035FE05F00F0017
:1011300028B9217C04F2C442206803F0ADFD00BF51
:10114000002084F8BC0400BF00BFC3E72DE9F041D4
:1011500004460E461746984606F00F0000EBC00105
:1011600004F13C0000EB81052F61C5F818800020D8
:1011700028620120687006F00F002870206901289D
:1011800000D16F6106F00F0028B9227C2946206843
:1011900003F094FC04E0227C2946206803F048FE1A
:1011A0000020BDE8F0812DE9FE4F0446D4F800B0E0
:1011B0005E46206804F0C7F8002874D1206804F067
:1011C00001F908B9BDE8FE8F40F608008059C0F368
:1011D0000D20C4F8FC04206804F0F4F800F00200CC
:1011E000022805D12068406900F0020021684861AA
:1011F000206804F0E7F800F01000102845D12068BE
:10120000806920F0100021688861DBF8209009F0E7
:101210000F0000EBC00104F51F7000EB810AC9F359
:10122000434002281AD147F6F07009EA000030B3B3
:10123000C9F30A125846DAF8101004F0C8F8C9F3D6
:101240000A11DAF810000844CAF81000C9F30A11AC
:10125000DAF820000844CAF8200010E0C9F343403F
:1012600006280CD1082204F2C441584604F0AFF815
:10127000C9F30A11DAF820000844CAF820002068EF
:10128000806940F0100021688861206804F09AF8B5
:1012900000F40020B0F5002F7BD10025206804F079
:1012A00061F8029072E0E1E2029800F0010000288B
:1012B00068D0E9B2206804F078F8804608F00100B0
:1012C00048B1012106F5306000EB451081602946E8
:1012D000204601F0D5FA08F00800082809D10821B5
:1012E00006F5306000EB451081602946204601F08C
:1012F00095FA08F01000102805D1102106F530608D
:1013000000EB4510816008F00200022824D1DBF8D0
:10131000140000F08000802807D140F604008059B6
:1013200040F4806140F60400815105EBC50104F5ED
:101330001F7000EB810A9AF80300012806D10020F3
:101340008AF80300E9B2204600F09BFA022106F574
:10135000306000EB4510816008F02000202805D1A6
:10136000202106F5306000EB4510816008F4005044
:10137000B0F5005F06D14FF4005106F5306000EB88
:10138000451081606D1C0298400802900298002868
:101390008AD1206804F016F800F48020B0F5802F80
:1013A0007DD1206803F0D4FF029000259AE00298D6
:1013B00000F00100002873D0E9B2206803F0DCFFE0
:1013C000804608F00100F0B305F00F0101208840CD
:1013D000019040F634008159019821EA000040F65E
:1013E00034018851012106F5106000EB4510816041
:1013F0002069012824D105EBC50104F13C0000EB74
:10140000810005EBC502016904F13C0000EB82009C
:10141000C068014405EBC50204F13C0000EB82000A
:1014200001616DB905EBC50104F13C0000EB8100E1
:10143000806928B904F2C4420121206803F02CFC21
:10144000E9B2204600E001E0FFF70EFD08F00800D9
:10145000082805D1082106F5106000EB45108160D1
:1014600008F01000102805D1102106F5106000EBDF
:101470004510816008F04000402805D1402106F564
:10148000106000EB4510816008F0020002281DD1B9
:101490002946584603F018FF05EBC50101E025E099
:1014A0001CE004F13C0000EB810A9AF803000128DB
:1014B00006D100208AF80300E9B2204600F0D8F9EE
:1014C000022106F5106000EB4510816008F08000F5
:1014D000802803D12946204601F074FA6D1C029839
:1014E00040080290029800287FF461AF206803F062
:1014F00069FF00F00040B0F1004F1CD140F604003D
:10150000805920F0010140F60400815194F8F40460
:10151000012807D1002084F8F40400212046FFF7B9
:101520006FFC02E0204600F0CFFA2068406900F02E
:10153000004021684861206803F044FF00F4006027
:10154000B0F5006F0ED140F60800805900F00100A0
:1015500010B1204600F010FB2068406900F40060E4
:1015600021684861206803F02DFF00F48050B0F539
:10157000805F7ED140F60400805920F0010140F6E2
:10158000040081511021206803F09EFE002732E004
:101590004FF67F3106F5106000EB4710816006F5CD
:1015A000106000EB4710006820F4001106F5106091
:1015B00000EB471001604FF67F3106F5306000EB1D
:1015C0004710816006F5306000EB4710006820F49A
:1015D000001106F5306000EB4710016006F5306041
:1015E00000EB4710006840F0006106F5306000EB4A
:1015F000471001607F1C6068B842C9D840F61C00E3
:10160000805940F0011140F61C008151206B70B1EF
:10161000D6F8840840F00B01C6F8841840F6440060
:10162000805940F00B0140F6440081510FE040F634
:101630001400805942F22B01084340F614018851EE
:10164000081F805940F00B014FF401608151D6F81A
:10165000000820F4FE60C6F80008217C04F2C442B1
:10166000206803F019FB2068406900F4805021686D
:1016700000E000E04861206803F0A4FE00F40050A0
:10168000B0F5005F17D1206802F0D4FF206803F0A6
:1016900047FEE06000F04CFB0090227B2068009940
:1016A00003F018FF204600F0FDF92068406900F4BF
:1016B000005021684861206803F084FE00F00800B3
:1016C000082808D1204600F006FA2068406900F09A
:1016D000080021684861206803F074FE00F0800073
:1016E000802818D1DBF8180020F08000CBF8180013
:1016F00001250DE005EBC50104F51F7000EB81002D
:10170000C078012803D1E9B22046FFF7D4FB6D1C55
:101710006068A842EED8206803F054FE00F4801000
:10172000B0F5801F2DD1012522E006F5106000EBF9
:101730004510D0F8009005EBC50104F13C0000EB2A
:1017400081000079012812D109F00040B0F1004F6A
:101750000DD1012105EBC50204F13C0000EB820034
:10176000C170E8B240F080012046FFF7A4FB6D1C79
:101770006068A842D9D82068406900F480102168C8
:101780004861206803F01EFE00F40010B0F5001F51
:1017900044D1012538E006F5306000EB4510D0F863
:1017A000009005EBC50104F51F7000EB8100007986
:1017B000012828D109F00040B0F1004F23D109F4ED
:1017C000803094F8FC1401F0010188421BD1012102
:1017D00005EBC50204F51F7000EB8200C170DBF859
:1017E000180040F08000CBF81800DBF8140000F07F
:1017F000800040B940F60400805940F4007140F682
:101800000400815103E06D1C6068A842C3D800BF8A
:101810002068406900F4001021684861206803F0E6
:10182000D1FD00F08040B0F1804F08D12046FFF795
:1018300014FB2068406900F08040216848612068FE
:1018400003F0C0FD00F0040004280FD12068D0F898
:10185000049009F00400042802D12046FFF724FB7D
:101860002068406840EA09002168486000BFA9E498
:1018700070B504460D462946D4F8080502F0F6F97D
:1018800070BD70B504460D462946D4F8080502F02F
:1018900011FA70BD70B58AB0044614B901200AB0BF
:1018A00070BD266894F8BD0428B9002084F8BC04F3
:1018B000204600F0A3F8032084F8BD04F06B00F488
:1018C000807008B900212161206803F0EFF8282218
:1018D00004F110016846FEF764FD94E80F0002F081
:1018E000BDFE20B1022084F8BD040120D7E700210D
:1018F000206803F09CFD002531E0012105EBC502C5
:1019000004F13C0000EB8200417005EBC50104F1DD
:101910003C0000F8215005EBC50100EB810005817A
:10192000002105EBC50204F13C0000EB82000171CF
:1019300005EBC50204F13C0000EB8200C16005EB41
:10194000C50204F13C0000EB8200016105EBC50219
:1019500004F13C0000EB82008161681CC5B2606844
:10196000A842CAD800252AE0002105EBC50204F5EB
:101970001F7000EB8200417005EBC50104F51F707C
:1019800000F82150002105EBC50200EB8200017137
:1019900005EBC50204F51F7000EB8200C16005EB8A
:1019A000C50204F51F7000EB8200016105EBC50262
:1019B00004F51F7000EB82008161681CC5B260688D
:1019C000A842D1D8282204F110016846FEF7E9FCAC
:1019D00094E80F0002F07AFF20B1022084F8BD04E1
:1019E00001205CE7002084F83800012084F8BD0461
:1019F000206802F059FF002051E7000010B586B0C2
:101A00000446142101A8FEF7FEFC2068B0F1A04FA7
:101A100042D100BF002000902048006840F0010043
:101A20001E4908600846006800F00100009000BFF1
:101A300000BF4FF4C050019002200290002003909C
:101A4000032004900A20059001A91548FEF7E0FD47
:101A500000BF1248001D006840F080000F49091DBA
:101A6000086000BF002000900C481430006840F46B
:101A700080400A49143108600846006800F480403C
:101A8000009000BF00BF00BF002211464320FFF7B7
:101A900065F94320FFF752F906B010BD3038024017
:101AA0000000024070B504460125E068022801D01C
:101AB000FEF72FFD2946D4F8080502F0A4F9D4F862
:101AC000080502F04BF970BD10B50446D4F80805BE
:101AD00002F07AF910BD10B50446D4F8080502F0FA
:101AE0007EF910BD70B504460D4600BF94F8BC04E5
:101AF000012801D1022070BD012084F8BC0400BF80
:101B000084F838502946206803F0C5FC00BF002047
:101B100084F8BC0400BF00BFEDE710B5044604F232
:101B2000C441D4F8080502F085F910BD70B504462B
:101B3000256800BF94F8BC04012801D1022070BDC3
:101B4000012084F8BC0400BFA06A012806D1A06966
:101B5000012803D0A86B40F48030A863206803F00C
:101B600081FB206802F08EFE00BF002084F8BC04D8
:101B700000BF00BFE3E7000010B50446D4F8080535
:101B800002F0B5F92068D0F8000E40F0010021689D
:101B9000C1F8000E206A28B10348006840F0060032
:101BA0000149086010BD000010ED00E070B504466A
:101BB0000D460CB9012070BD5848006800F00700C0
:101BC000A84209D255490D700846006800F0070088
:101BD000A84201D00120EEE7207800F002000228A0
:101BE0001DD1207800F00400042805D14C4800687D
:101BF00040F4E0504A490860207800F008000828C6
:101C000005D14748006840F46040454908604448B1
:101C1000006820F0F000A16808434149086020787E
:101C200000F00100A8B36068012807D13C480838DB
:101C30000068C0F34040B8B90120BCE760680228E2
:101C400002D06068032807D1354808380068C0F31F
:101C5000406048B90120AEE7314808380068C0F359
:101C6000400008B90120A6E72D48006820F00300D5
:101C7000616808432A490860FEF7B4FD064609E09A
:101C8000FEF7B0FD801B41F28831884202D9032063
:101C900091E707E02248006800F00C006168B0EBB3
:101CA000810FEDD11D48006800F00700A84209D956
:101CB0001A490D700846006800F00700A84201D0DC
:101CC000012078E7207800F00400042807D11448A8
:101CD000006820F4E050E16808431149086020786A
:101CE00000F00800082808D10D48006820F4604082
:101CF000216940EAC1000A49086000F02FF808494C
:101D00000968C1F30311074A515CC84006490860DD
:101D100006480068FEF7C8FF00204CE7003C024080
:101D20000838024048620108180100201001002014
:101D300001480068704700001801002000B5FFF757
:101D4000F7FF04490968C1F38221034A515CC84086
:101D500000BD000008380240586201082DE9F04734
:101D6000002400250026A1462548006800F00C004C
:101D700020B1042805D008283AD105E0DFF8849086
:101D800039E0DFF8849036E01D48001F006800F05D
:101D90003F041B48001F006800F4800078B11A4817
:101DA0001749091F0968C1F38811A0FB017001469A
:101DB000224600233846FEF77DFA05460EE011481C
:101DC0000F49091F0968C1F38811A0FB0170014682
:101DD000224600233846FEF76DFA05460848001FE4
:101DE0000068C0F30140401C4600B5FBF6F902E074
:101DF000DFF8109000BF00BF4846BDE8F087000044
:101E0000083802400024F40040787D01F8B504460B
:101E10000CB90120F8BD207800F00100002874D032
:101E2000F948006800F00C0004280DD0F64800685E
:101E300000F00C00082813D1F348001F006800F4DC
:101E40008000B0F5800F0BD1EF4808380068C0F370
:101E50004040002859D06068002856D10120D9E7B9
:101E600000BF6068B0F5803F08D1E74808380068D7
:101E700040F48030E449083908601EE06068B0F53D
:101E8000A02F0DD1E0480838006840F48020DE49DA
:101E9000083908600846006840F4803008600CE0AB
:101EA000D9480838006820F48030D74908390860DC
:101EB0000846006820F48020086000BF606890B188
:101EC000FEF790FC054606E0FEF78CFC401B6428FC
:101ED00001D903209EE7CC4808380068C0F3404091
:101EE0000028F1D011E0FEF77DFC054606E0FEF784
:101EF00079FC401B642801D903208BE7C2480838CD
:101F00000068C0F340400028F1D1207800F00200C2
:101F100002285FD1BC48006800F00C0058B1BA48F4
:101F2000006800F00C0008281CD1B748001F0068AA
:101F300000F48000B0B9B44808380068C0F340002D
:101F400020B1E068012801D0012063E7AE480838DD
:101F5000006820F0F800216940EAC100AA49083968
:101F6000086037E0E06800B30120A8490860FEF788
:101F700039FC054606E0FEF735FC401B022801D976
:101F8000032047E7A04808380068C0F34000002855
:101F9000F1D09D480838006820F0F800216940EA37
:101FA000C10099490839086014E000209749086089
:101FB000FEF718FC054606E0FEF714FC401B02285D
:101FC00001D9032026E7904808380068C0F3400094
:101FD0000028F1D1207800F0080008282CD1606991
:101FE000A8B101208A490860FEF7FCFB054606E01F
:101FF000FEF7F8FB401B022801D903200AE78248BC
:102000006C300068C0F340000028F1D014E00020DC
:102010007F490860FEF7E6FB054606E0FEF7E2FBB7
:10202000401B022801D90320F4E677486C30006891
:10203000C0F340000028F1D1207800F0040004280B
:1020400070D1002770483830006800F0805090B997
:1020500000BF002000906C483830006840F080508D
:102060006949383108600846006800F080500090E7
:1020700000BF00BF01276748006800F48070B0B956
:102080006448006840F4807062490860FEF7AAFB6B
:10209000054606E0FEF7A6FB401B022801D90320F7
:1020A000B8E65C48006800F480700028F2D000BFF9
:1020B000A068012808D154486830006840F0010049
:1020C0005149683108601DE0A06805280DD14E48CF
:1020D0006830006840F004004B49683108600846E9
:1020E000006840F0010008600CE047486830006874
:1020F00020F001004449683108600846006820F07B
:102100000400086000BFA068A8B1FEF76BFB05469D
:1021100009E0FEF767FB401B41F28831884202D993
:10212000032077E626E0384868300068C0F34000B6
:102130000028EED013E0FEF755FB054608E0FEF759
:1021400051FB401B41F28831884201D9032061E6EE
:102150002D4868300068C0F340000028EFD1012FFF
:1021600007D129483830006820F08050264938319E
:10217000086000BFA069002845D02348006800F02F
:102180000C0008285DD0A069022845D100201F4915
:102190000866FEF727FB054606E0FEF723FB401B1B
:1021A000022801D9032035E6174808380068C0F333
:1021B00040600028F1D1D4E907010843616A40EA90
:1021C00081110122A06AC2EB500041EA00412C209B
:1021D000005D41EA00600C49091F086001200B49BD
:1021E0000866FEF7FFFA054606E0FEF7FBFA401B1D
:1021F000022801D903200DE6034808380068C0F31F
:1022000040600028F1D049E0083802400000474211
:10221000800E474200700040002021490866FEF70A
:10222000E1FA054606E0FEF7DDFA401B022801D977
:102230000320EFE51B480068C0F340600028F2D19E
:102240002CE0A069012800D1E4E51648001D0668CD
:10225000A069012820D006F48001E06981421BD1E9
:1022600006F03F01206A814216D147F6C070304027
:10227000616AB0EB811F0FD106F440310122A06AE0
:10228000C2EB5000B1EB004F06D106F070612C207C
:10229000005DB1EB006F01D00120BBE50020B9E586
:1022A000000047420038024070B504462546681ECB
:1022B000B0F1807F01D301200FE0681E4FF0E021D4
:1022C00048610F214FF0FF3003F0A4F900204FF0D8
:1022D000E021886107200861002070BD00BFFEE793
:1022E000014608684069C0F38020B0B16FF4806097
:1022F0000A68506100200863202081F83D0000201A
:1023000081F83E00086C40F00400086400BF002023
:1023100081F83C0000BF012070470020FCE700006E
:102320002DE9F8430446884615469946DDE90867D5
:102330002068006840F480702168086033460022FD
:102340004FF001112046009700F088F860B1206836
:10235000006800F48070B0F5807F02D14FF4007007
:1023600020640320BDE8F88308F0FE0021680861BE
:102370003B4632462149204600F0B3F808B101201F
:10238000F0E700BF002000902068406900902068BE
:102390008069009000BF00BF3A463146204600F0F9
:1023A00002F950B1206C042805D12068006840F47F
:1023B0000070216808600120D4E7B9F1010F03D152
:1023C000E8B22168086117E0C5F3072021680861B9
:1023D0003A463146204600F0E6F850B1206C042819
:1023E00005D12068006840F4007021680860012071
:1023F000B8E7E8B2216808610020B3E702000100F5
:1024000070B504460D46164620E02046FFF768FFEB
:1024100008B1012070BD681CC0B1FEF7E3F9801B54
:10242000A84200D895B900202063202084F83D0000
:10243000002084F83E00206C40F02000206400BFA3
:10244000002084F83C0000BF0120E3E720684069D9
:10245000C0F380000028D8D00020DBE72DE9F04150
:1024600004460D4617461E46DDF818801CE0701C19
:10247000D0B1FEF7B7F9A0EB0800B04200D89EB982
:1024800000202063202084F83D00002084F83E00D6
:10249000206C40F02000206400BF002084F83C0045
:1024A00000BF0120BDE8F081C5F3074001280AD133
:1024B00020684069A9B20840A9B2884201D1012030
:1024C0000BE0002009E020688069A9B20840A9B2A9
:1024D000884201D1012000E00020B842C7D000208E
:1024E000E0E72DE9F04104460D4616461F463DE063
:1024F00020684069C0F38020E8B12068006840F49B
:102500000070216808606FF48060216848610020D5
:102510002063202084F83D00002084F83E00206CD9
:1025200040F00400206400BF002084F83C0000BF9D
:102530000120BDE8F081701CC0B1FEF753F9C01B4B
:10254000B04200D896B900202063202084F83D00D6
:10255000002084F83E00206C40F02000206400BF82
:10256000002084F83C0000BF0120E2E7C5F30740EB
:1025700001280AD120684069A9B20840A9B288425E
:1025800001D101200BE0002009E020688069A9B298
:102590000840A9B2884201D1012000E000200028B3
:1025A000A6D00020C5E770B504460D46164620E0CB
:1025B0002046FFF795FE08B1012070BD681CC0B130
:1025C000FEF710F9801BA84200D895B900202063BF
:1025D000202084F83D00002084F83E00206C40F06C
:1025E0002000206400BF002084F83C0000BF0120D0
:1025F000E3E720684069C0F3C0100028D8D000206D
:10260000DBE730B50B46002100BF16E00A24B4EB2F
:10261000107F05D9302404EB107403F8114005E055
:10262000412404EB10740A3C03F81140000100251A
:102630004C00641C1D554C1CE1B29142E6DB30BDE0
:1026400000B587B0142102A8FDF7DDFE00BF002011
:1026500001903748006840F004003549086008469A
:10266000006800F00400019000BF00BF00BF002020
:1026700001900846006840F0800008600846006845
:1026800000F08000019000BF00BF00BF002001905B
:102690000846006840F0010008600846006800F045
:1026A0000100019000BF00BF00BF0020019008465C
:1026B000006840F0020008600846006800F0020070
:1026C000019000BF00BF012251031A48FEF784F8B1
:1026D000012240F22B311848FEF77EF84FF40050EB
:1026E000029001200390002004900320059002A98D
:1026F0001048FDF78DFF40F22B3002900020039030
:102700000120049002A90C48FDF782FF04200A4929
:10271000183108601E2002900120039004900020D0
:10272000059002A90548FDF773FF07B000BD000042
:10273000303802400008024000040240000002401D
:1027400010B50B480B4908600B4848600021094848
:102750008160C1604FF4804101610021416181616C
:10276000C1610162FEF744F808B1FDF7D2FE10BD69
:10277000005400409C010020A086010010B50B48C9
:102780000B4908600B484860002109488160C1601E
:102790004FF480410161002141618161C1610162A9
:1027A000FEF726F808B1FDF7B4FE10BD005C00404E
:1027B000F0010020A086010010B500220D490E484E
:1027C00001F0A5F808B1FDF7A4FE0C490A4801F094
:1027D000CBFB08B1FDF79DFE0949074800F0A4FCBA
:1027E00008B1FDF796FE044801F0C0FC08B1FDF702
:1027F00090FE10BD44000020440400202001002071
:10280000FC00002000BFFEE700BFFEE710B5024855
:10281000FEF7C9FC10BD0000200900202DE9F0479B
:1028200004460D4626683746D6F8408007F53060E6
:1028300000EB4510D0F80890104880450BD909F4FA
:102840000040B0F5004F06D14FF4004107F530606D
:1028500000EB451081602046FFF75FF9074880458F
:1028600008D92069012805D104F2C4420121206859
:1028700002F012FA0020BDE8F08700000A30544F41
:102880002DE9F04705460C46D5F800904E46D9F89C
:1028900040A006F5306000EB4410D0F808802869AD
:1028A000012855D108F0080008280FD14348824577
:1028B0000BD908F40040B0F5004F7BD14FF4004134
:1028C00006F5306000EB4410816073E008F02000F2
:1028D000202806D1202106F5306000EB44108160ED
:1028E00068E008F02800002864D1344882450CD9FB
:1028F00008F40040B0F5004F07D14FF4004106F551
:10290000306000EB4410816054E004EBC40105F535
:102910001F7000EB810706F5306000EB4410F96989
:102920000069C0F31200081A386264B9B86930B996
:1029300005F2C4420121286802F0AEF903E0396AC9
:10294000386908443861E1B22846FEF79DFA31E063
:102950001B4882451BD108F40040B0F5004F07D159
:102960004FF4004106F5306000EB4410816021E037
:1029700008F02000202805D1202106F5306000EB6A
:1029800044108160E1B22846FEF77EFA12E06CB98D
:1029900004EBC40105F51F7000EB8100806928B9C4
:1029A00005F2C4420021286802F076F9E1B2284617
:1029B000FEF76AFA0020BDE8F08700000A30544FA5
:1029C0000A31544F2DE9F84F07460E46D7F80090CC
:1029D000C84606EBC60107F13C0000EB8104A16983
:1029E000206A884202D90120BDE8F88F216AA069D7
:1029F000451AE068A84200D2E568E81C4FEA900A50
:102A000017E0216AA069451AE068A84200D2E5688B
:102A1000E81C4FEA900A387CABB2F2B2009048460C
:102A2000216902F0CBFD206928442061206A2844F6
:102A3000206208F5106000EB4610806980B25045B6
:102A400006D3A169206A884202D2A0690028D8D1A1
:102A5000216AA06988420ED806F00F01012000FA11
:102A600001FB40F6340050F8080020EA0B0040F665
:102A7000340141F808000020B6E7704720B94FF450
:102A80000031694A916111E0012803D18104664A4D
:102A900091610BE0022803D18104634A916105E052
:102AA000032803D14FF480115F4A91615F4909689F
:102AB00001F00101A1B95E49C97839B900EB4001C3
:102AC0005C4A12F811105A4AD17009E05849097944
:102AD00031B900EB4001574A12F81110544A1171F4
:102AE0005249096801F00201B1B95149C97841B9A7
:102AF00000EB40014F4A02EB410149784C4AD1704A
:102B00000AE04B49097939B900EB4001494A02EB27
:102B100041014978464A11714449096801F00801A8
:102B2000B1B94349C97841B900EB4001414A02EBD0
:102B3000410189783E4AD1700AE03D49097939B9A5
:102B400000EB40013B4A02EB41018978384A1171A0
:102B50003649096801F02001B1B93549C97841B950
:102B600000EB4001334A02EB4101C978304AD17091
:102B70000AE02F49097939B900EB40012D4A02EBEF
:102B80004101C9782A4A11712849096801F4807104
:102B9000B1B92749C97841B900EB4001254A02EB98
:102BA00041010979224AD1700AE02149097939B9EC
:102BB00000EB40011F4A02EB410109791C4A1171E7
:102BC0001A49096801F40071B1B91949C97841B9C4
:102BD00000EB4001174A02EB41014979144AD170D8
:102BE0000AE01349097939B900EB4001114A02EBB7
:102BF000410149790E4A117118B902210A4A9161BD
:102C000010E0012803D10421074A91610AE002285B
:102C100003D10821044A916104E0032802D1102164
:102C2000014A916170470000000002401004024018
:102C300028000020D0610108704730B501460A46DF
:102C40001378521C147843EA042030BD10B5FEF707
:102C500001F810BD00B593B0302107A8FDF7D3FBF4
:102C6000142102A8FDF7CFFB00BF002001902548EA
:102C7000006840F08050234908600846006800F072
:102C80008050019000BF00BF00BF002001901E488F
:102C9000006820F4404040F400401B4908600846AA
:102CA000006800F44040019000BF00BF0120079081
:102CB0000004089002200D9041050E9119210F91FA
:102CC0004FF4A8711091042111910721129107A8C6
:102CD000FFF79CF808B1FDF71CFC0F2002900220C2
:102CE0000390002004904FF480500590002006903F
:102CF000022102A8FEF75AFF08B1FDF70AFC13B043
:102D000000BD0000403802400070004003480068E9
:102D100040F47000014908607047000088ED00E051
:102D20002748006840F002002549086025480068EF
:102D300020F4A040234908600846006840F4204081
:102D400008600846C06820F47040C8600846006A01
:102D500020F07F4008620846006A40F00850086290
:102D6000194800684FF2F001084317490860084607
:102D7000006840F201110843134908601248083006
:102D8000006820F022001049083108600E48103811
:102D9000006840F003000C491039086064200A49BB
:102DA0001431086008481838006840F001000649EE
:102DB00018390860002004490C3108607047000091
:102DC00040380240000002401804004010B502469E
:102DD000002302F53070D2F8D44250F82400037575
:102DE000002010BD2DE9F04104460E4604F5307078
:102DF000D4F8D41250F8210010B90320BDE8F081B6
:102E000004F53070D4F8D41250F82150697828783D
:102E100004F53173D4F8D47253F82730DA68904748
:102E20000020EBE770B504460D462D48017820469A
:102E300000F09DFD00212A48007800F00F0000EB13
:102E4000800204F1140000EB820001822448007823
:102E500000F00F0000EB800204F1140000EB820090
:102E6000418220480178204600F081FD00211D4864
:102E7000007800F00F0000EB800204F5AA7000EB70
:102E8000820001821748007800F00F0000EB8002FA
:102E900004F5AA7000EB8200418204F53070D4F88A
:102EA000D41250F82100C8B104F53171D4F8D422FD
:102EB00051F822108868804704F53071D4F8D42284
:102EC00051F8220001F046FB002104F53070D4F8DF
:102ED000D42240F822100020C4F8BC02002070BDAB
:102EE0009A0100209B01002070B5044604F5307063
:102EF000D4F8D41250F821500DB9032070BD2869C0
:102F000001280BD16978287804F53173D4F8D4629C
:102F100053F82630DA689047002028610020EDE75A
:102F200001460A20088001487047000090010020F7
:102F300070B5064681210B4800F03FFC0446012194
:102F4000084800F03AFC05461CB14020A08005204E
:102F5000A0711DB14020A8800520A87129203080D3
:102F6000004870BD5801002070B5064681210B480D
:102F700000F023FC04460121084800F01EFC054631
:102F80001CB14020A0800520A0711DB14020A88068
:102F90000520A87129203080004870BD580100200C
:102FA00070B5064681210B4800F007FC044601215C
:102FB000084800F002FC05461CB14020A080052016
:102FC000A0711DB14020A8800520A8712920308063
:102FD000004870BD5801002070B504460E46182008
:102FE00001F0BAFA054645B9002104F53070D4F86D
:102FF000D42240F82210022070BD04F53070D4F8BD
:10300000D41240F82150D4F8D41250F82100C4F85A
:10301000BC02207CB8B905213348007800F00F00CD
:1030200000EB800204F1140000EB820041822F4883
:10303000007800F00F0000EB800204F5AA7000EBAE
:103040008200418216E005212748007800F00F0039
:1030500000EB800204F1140000EB8200418223485F
:10306000007800F00F0000EB800204F5AA7000EB7E
:1030700082004182402303221B480178204600F051
:103080003DFE01211848007800F00F0000EB80029F
:1030900004F1140000EB8200018240230322134854
:1030A0000178204600F02AFE01211048007800F047
:1030B0000F0000EB800204F5AA7000EB8200018291
:1030C0000020287504F53171D4F8D42251F822106B
:1030D0004868804702232A4604480178204600F0C9
:1030E00025FE002088E700009A0100209B010020B7
:1030F00070B5044604F53070D4F8D41250F82100AD
:1031000008B9032070BD04F53070D4F8D41250F81B
:10311000215002232A4603480178204600F006FE8B
:103120000020EFE79B010020024609B90320704709
:1031300002F53170D2F8D43240F823100020F6E7BF
:103140002DE9F04104460E46174604F53070D4F8D8
:10315000D41250F8210010B90320BDE8F08104F525
:103160003070D4F8D41250F8215094F89C020328FF
:103170000DD1287D48B9012028753B4632460548C7
:103180000178204600F0BDFE01E00120E5E70020C7
:10319000E3E700009A0100202DE9F84306460C46BB
:1031A00006F53070D6F8D41250F821500027B846F2
:1031B00000200090814615B90320BDE8F8832078EF
:1031C00000F06000002837D0202874D16078801E7D
:1031D0000A2828D2DFE800F0120827272727271916
:1031E0000E05A078686025E00122291D304600F018
:1031F00019F91FE060880012A8601BE0012205F1A8
:103200000801304600F00EF914E001202861E08842
:10321000022801D2E08800E002200246294630461A
:1032200000F0DFF806E02146304600F0CEF84FF01F
:10323000030900BF00BF78E0607806281AD003DCDD
:1032400038B1012861D15FE00A283DD00B285CD15C
:103250004CE096F89C02032805D1022269463046CC
:1032600000F0E0F805E02146304600F0AEF84FF0FF
:10327000030951E060882221B1EB202F0FD1E088B3
:10328000662801DD662000E0E088074606F531701B
:10329000D6F8D41250F82100D0F800800EE06088F3
:1032A0002121B1EB202F09D1DFF88480E0880928A3
:1032B00002D9092001E031E0E08807463A4641465C
:1032C000304600F0AFF827E096F89C02032806D1BC
:1032D000012205F10C01304600F0A4F805E021467A
:1032E000304600F072F84FF0030915E096F89C02A2
:1032F000032802D1A078E86005E02146304600F0BE
:1033000064F84FF0030907E006E02146304600F07C
:103310005CF84FF0030900BF00BF06E021463046CD
:1033200000F053F84FF0030900BF00BF484644E7E0
:103330008401002070B504460D460026D4F8B8027A
:10334000294642682046904700B10326304670BDAA
:1033500070B504460D4694F89C02012804D002285A
:1033600003D003280CD101E000BF00BF688801280A
:1033700005D10020C4F8A402204600F064F804E05F
:103380002946204600F021F800BF00BF70BD02466C
:103390000020704702460020704770B506460C4674
:1033A00015462B4622460021304600F0BFFC002087
:1033B00070BD70B506460C4615462B4622460021C8
:1033C000304600F09EFD002070BD70B504460D46ED
:1033D0008021204600F069FD0021204600F065FDB7
:1033E00070BD70B504460E4615460320C4F894021D
:1033F0004FF4AC700551001D05512B46324600219B
:10340000204600F093FC002070BD10B50446052056
:10341000C4F8940200231A461946204600F086FCA0
:10342000002010BD70B504460E4615460220C4F8B3
:103430009402A561E5612B4632460021204600F04A
:1034400060FD002070BD10B504460420C4F894024D
:1034500000231A461946204600F053FD002010BDF7
:1034600070B505460C462DB92246064906A000F067
:103470000EFA04E02246034903A000F008FA0148CE
:1034800070BD000020070020437573746F6D2048E5
:10349000494420436F6E66696700000002461220AF
:1034A00008800148704700006000002070B50546A4
:1034B0000C462DB92246064906A000F0E8F904E0C2
:1034C0002246034903A000F0E2F9014870BD000064
:1034D00020070020437573746F6D204849442049CC
:1034E0006E74657266616365000000000246042028
:1034F00008800148704700007400002070B5054640
:103500000C462246024903A000F0C1F9004870BDF4
:103510002007002041594B0070B505460C462DB9D7
:103520002246064906A000F0B2F904E0224603490B
:1035300003A000F0ACF9014870BD00002007002096
:1035400041594B5F4B4559424F41524400000000E6
:1035500070B505460C461A202080FDF72BF801486F
:1035600070BD00007800002070B504460D46E88864
:10357000012804D029462046FFF727FF1EE094F8D3
:103580009C02012804D0022803D0032810D109E0AE
:1035900000BF0020A060012204F108012046FFF7CF
:1035A00041FF0AE00122211D2046FFF73BFF04E016
:1035B00029462046FFF709FF00BF00BF70BDF8B5E0
:1035C00004460E4600200090002700257088001257
:1035D000082875D2DFE800F0C7040C20C7C7A5B5DE
:1035E000207CD4F8B4120A68694690470746C1E0C7
:1035F000207C40B9D4F8B802816A684688470746FB
:103600000220787007E0D4F8B802C16A684688479B
:10361000074602207870ADE0B078062878D2DFE85F
:1036200000F00316293C5063D4F8B402406838B166
:10363000207CD4F8B4124A6869469047074605E0F2
:1036400031462046FFF7C1FE681CC5B267E0D4F8DA
:10365000B402806838B1207CD4F8B4128A68694614
:103660009047074605E031462046FFF7AEFE681C4E
:10367000C5B254E0D4F8B402C06838B1207CD4F8A4
:10368000B412CA6869469047074605E031462046AD
:10369000FFF79BFE681CC5B241E0D4F8B402006994
:1036A00038B1207CD4F8B4120A69694690470746BD
:1036B00005E031462046FFF788FE681CC5B22EE0C3
:1036C00051E0D4F8B402406938B1207CD4F8B41287
:1036D0004A6969469047074605E031462046FFF7AC
:1036E00074FE681CC5B21AE0D4F8B402806940B117
:1036F000207CD4F8B4128A6969469047074606E0F0
:1037000006E031462046FFF760FE681CC5B206E0C1
:1037100031462046FFF759FE681CC5B200BF00BF06
:1037200028E0207C30B9D4F8B802416B684688475D
:10373000074605E031462046FFF747FE681CC5B244
:1037400018E0207C40B9D4F8B802016B684688477D
:1037500007460720787005E031462046FFF735FE22
:10376000681CC5B206E031462046FFF72EFE681CF5
:10377000C5B200BF00BF05B1F8BDF088C0B1BDF84B
:10378000000080B1F088BDF80010884202DDBDF86D
:10379000000000E0F0880090BDF800203946204687
:1037A000FFF740FE07E031462046FFF70EFE02E03D
:1037B0002046FFF748FE00BFDEE72DE9F841054649
:1037C0000F462C462E464FF000087088317888420C
:1037D00018DD307800900FE06946204600F020F8B0
:1037E00004466078052807D1A04698F80200B84240
:1037F00000D106E04FF000087088BDF80010884244
:10380000EADC00BF4046BDE8F881014600200A46D8
:1038100002E0431CD8B2521C1378002BF9D1704738
:1038200010B5024610460B88047823440B800378B9
:10383000981810BD70B504460D4694F89C020128F6
:1038400004D0022803D003281AD101E000BF00BF32
:10385000E888022804D029462046FFF7B6FD14E088
:103860000120E060D4F8A40218B1E06840F0020042
:10387000E060022204F10C012046FFF7D3FD04E0D2
:1038800029462046FFF7A1FD00BF00BF70BD2DE90E
:10389000F04107460D46904600240FB9BDE8F0817F
:1038A0003E463046FFF7B1FF022101EB4000A8F889
:1038B000000098F800002855601CC4B20320285569
:1038C000601CC4B208E030782855761C601CC4B275
:1038D00000202855601CC4B230780028F3D100BF06
:1038E000DCE70146002031B1012906D0022906D0CB
:1038F000032908D105E0002007E0032005E00120AE
:1039000003E0032001E0032000BF00BF70472DE962
:10391000F04104460D46164614B90320BDE8F08177
:103920000020C4F8B802C4F8C402C4F8D0020DB133
:10393000C4F8B452012084F89C022670204600F09E
:1039400045F907463846E9E72DE9F04104460D46BA
:10395000002600272946D4F8C802FDF702FB0646D8
:103960003046FFF7BEFF07463846BDE8F0812DE937
:10397000F04104460D46002600272946D4F8C80227
:10398000FDF7BAFA06463046FFF7ABFF0746384662
:10399000BDE8F0812DE9F04704460F469146002F1F
:1039A00056D104F11405D4F89402022846D1D5E981
:1039B000020188420FD9D5E90201401AA8604946A0
:1039C0002046AA68FFF7F5FC00231A461946204650
:1039D00000F0ACF932E0D5E90210884217D1E9686D
:1039E0006868884213D36868D4F8981288420ED267
:1039F000002211462046FFF7DCFC0020C4F89802A4
:103A000000231A461946204600F090F916E094F873
:103A10009C0203280BD1D4F8B802C06838B100204A
:103A2000C4F8D402D4F8B802C1682046884780217F
:103A3000204600F03AFA2046FFF7E7FC94F8A0028F
:103A400050B3204600F0B4FA002084F8A00223E02E
:103A500047F080012046FFF79AFC0646FF2E1BD058
:103A6000D6B994F89C02032816D104F52E7050F8AC
:103A70002600406980B1C4F8D46204F52E7050F875
:103A8000260039464269204690478046B8F1000F2B
:103A900002D04046BDE8F0870020FBE72DE9F04763
:103AA00005460F4690464FF00009002F51D105F50D
:103AB000AA76D5F8940203286FD1D6E9020188428C
:103AC00010D9D6E90201401AB060D6E90201884255
:103AD00001D2B06800E0F068024641462846FFF790
:103AE0005CFC5AE095F8AA0200F01F0020B1012802
:103AF00004D0022812D109E0002411E040F2AE20E7
:103B0000415D2846FFF746FC044609E040F2AE203E
:103B1000415D2846FFF73BFC044601E0002400BF5E
:103B200000BF94B995F89C0203280ED105F52E70BC
:103B300050F82400006940B1C5F8D44205F52E7054
:103B400050F824000169284688472846FFF77BFC87
:103B500023E007F07F012846FFF719FC0446FF2CFD
:103B60001BD0D4B995F89C02032810D105F52E700E
:103B700050F82400806950B1C5F8D44205F52E7084
:103B800050F8240039468269284690478146B9F1A9
:103B9000000F02D04846BDE8F0870020FBE7014651
:103BA0000020704770B504460025012084F89C026F
:103BB000D4F8B80238B12179D4F8B8024268204666
:103BC000904700B10325284670BD000010B504469B
:103BD000207800282AD11648C0F80845C4F8C80241
:103BE0004FF0A040124908600420486002211048AC
:103BF000C16000210161022181610021C161016276
:103C00004162C1620163FDF745FE08B1FCF781FC2A
:103C100080210748FDF7F5F8402200210448FDF710
:103C2000F5F8802201210248FDF7F0F8002010BDD0
:103C30002009002010B50246D2F8C83201F08000F9
:103C4000802809D101F07F0000EBC00403F13C00A3
:103C500000EB8400807810BD01F07F0000EBC00411
:103C600003F51F7000EB84008078F4E770B504461C
:103C70000D4604F52E70D4F8D41250F8210008B97E
:103C8000032070BD94F89C02032811D104F52E7016
:103C9000D4F8D41250F82100006A48B104F52E700F
:103CA000D4F8D41250F821002946026A20469047E1
:103CB0000020E6E770B504460D4604F52E70D4F8F2
:103CC000D41250F8210008B9032070BD94F89C026A
:103CD000032811D104F52E70D4F8D41250F8210025
:103CE000406A48B104F52E70D4F8D41250F821007F
:103CF0002946426A204690470020E6E72DE9F04732
:103D000004460F4615461E464FF00008C1462B4696
:103D100032463946D4F8C802FDF761F9804640467C
:103D2000FFF7DFFD81464846BDE8F0872DE9F04703
:103D300004460D4616461F464FF00008C1463B4656
:103D400032462946D4F8C802FDF78FF9804640462E
:103D5000FFF7C7FD81464846BDE8F08770B50446C9
:103D60000025012084F89C020020C4F894026060C1
:103D7000C4F8A40284F8A002D4F8B80258B1D4F868
:103D8000B802406838B12179D4F8B80242682046B8
:103D9000904700B103254023002211462046FFF73B
:103DA000ADFF01214FF4B27001534021001F0151BA
:103DB0004023002280212046FFF7A0FF0121A1849B
:103DC00040212162284670BD014691F89C020428DA
:103DD00003D191F89D0281F89C020020704710B534
:103DE000044694F89C0203280BD1D4F8B80240B1E1
:103DF000D4F8B802C06920B1D4F8B802C16920462D
:103E00008847002010BD02461174002070472DE93C
:103E1000F04104460D46002600272946D4F8C80282
:103E2000FDF760FE06463046FFF75BFD0746384665
:103E3000BDE8F08170B504460D46294604F2AA207B
:103E400000F077F80120C4F894024FF42C70005B66
:103E5000C4F8980294F8AA0200F01F0020B10128CB
:103E600009D0022815D10DE004F2AA21204600F065
:103E700083F9064616E004F2AA21204600F013FB5F
:103E800006460FE004F2AA21204600F0CCF90646CF
:103E900008E094F8AA0200F08001204600F005F83E
:103EA000064600BF00BF304670BD2DE9F041044614
:103EB0000D46002600272946D4F8C802FDF701F96F
:103EC00006463046FFF70DFD07463846BDE8F0814F
:103ED00070B5044600250026D4F8C802FDF726FE7A
:103EE00005462846FFF7FDFC0646304670BD0146F4
:103EF00091F89C0281F89D02042081F89C02002028
:103F000070472DE9F04704460D4616461F464FF010
:103F10000008C1463B4632462946D4F8C802FDF7A0
:103F200015F980464046FFF7DCFC81464846BDE86F
:103F3000F08770B505460E46344620782870641C1C
:103F400020786870641C2046FEF777FE6880641C49
:103F5000641C2046FEF771FEA880641C641C204689
:103F6000FEF76BFEE88070BD38B504460D460020B4
:103F700000900DB9032038BDC4F8B85204F52E7076
:103F8000D4F8D41250F82100C06A50B104F52E7054
:103F9000D4F8D42250F82200C16A68468847C4F891
:103FA000D002D4F8D802401CC4F8D8020020E2E7BE
:103FB00001460020704770B504460D46A88810BB26
:103FC000E88800BB688880281DD2A87800F07F06AA
:103FD00094F89C02032804D129462046FFF7F5F9FE
:103FE00015E084F89E6231462046FFF710FF204618
:103FF000FFF729FA1EB1022084F89C0207E0012095
:1040000084F89C0203E029462046FFF7DEF970BDE4
:1040100070B504460D460026D4F8B80230B1D4F885
:10402000B80229460268204690470646304670BDD1
:1040300070B504460E460025B0783D490870084624
:104040000078012805D931462046FFF7BEF9032044
:1040500070BD94F89C02022802D0032859D11FE0B9
:1040600033480078C0B13248007860603048017849
:104070002046FFF7CDFF05463DB131462046FFF70C
:10408000A4F9022084F89C0209E02046FFF7DBF93E
:10409000032084F89C0202E02046FFF7D4F943E0B5
:1040A0002348007870B9022084F89C0220480078E8
:1040B00060601F4801782046FFF73CF92046FFF773
:1040C000C2F925E01A490978606888421DD0217933
:1040D0002046FFF72FF916480078606014480178F1
:1040E0002046FFF795FF05465DB131462046FFF7B4
:1040F0006CF921792046FFF71DF9022084F89C0213
:1041000006E02046FFF79FF902E02046FFF79BF903
:104110000AE031462046FFF758F905480178204665
:10412000FFF708F9032500BF00BF284690E700000D
:104130001C01002070B505460C466088012805D199
:10414000C5F8A4022846FFF77EF90EE06088022831
:1041500007D1A088001285F8A0022846FFF773F95E
:1041600003E021462846FFF730F970BD10B504463C
:104170002046FFF7ADFE10BD70B504460D46002683
:10418000287800F0600088B1202802D0402842D171
:1041900000E000BF04F52E70D4F8D41250F82100CE
:1041A0002946826820469047064639E068780A2802
:1041B0002AD2DFE800F01A24291F290A0529150F41
:1041C00029462046FFF7FBF923E029462046FFF762
:1041D000F2FE1EE029462046FFF72AFF064618E0B9
:1041E00029462046FFF7C0F913E029462046FFF78D
:1041F00021FB0EE029462046FFF79CFF09E02946F7
:104200002046FFF7A5F804E029462046FFF7DDF831
:1042100000BF00BF04E029462046FFF7D6F800BFE4
:1042200000BF304670BD2DE9F04705460F464FF000
:1042300000093C79387800F06000F8B1202802D0FD
:1042400040287DD100E000BF21462846FFF79FF8B7
:104250000646FF2E11D086B9C5F8D46205F52E703A
:1042600050F82600806840B105F52E7050F8260001
:104270003946826828469047814610E178780028C0
:104280007AD001282FD003286ED195F89C020228FD
:1042900002D0032820D110E054B1802C08D0214650
:1042A0002846FFF702FE80212846FFF7FEFD03E0C7
:1042B00039462846FFF789F813E0788840B93CB1C1
:1042C000802C05D0F88818B921462846FFF7EDFD67
:1042D0002846FFF7B8F804E039462846FFF775F896
:1042E00000BF00BFD4E095F89C02022802D003284A
:1042F0003BD110E054B1802C08D021462846FFF76E
:10430000D4FD80212846FFF7D0FD03E0394628463A
:10431000FFF75BF82EE0788820BB04F07F0018B12F
:1043200021462846FFF710FB2846FFF78CF8214668
:104330002846FFF72CF80646FF2E13D096B900E06A
:10434000A8E0C5F8D46205F52E7050F82600806804
:1043500040B105F52E7050F826003946826828468F
:104360009047814606E007E08DE039462846FFF792
:104370002CF800BF00BF8BE095F89C02022802D009
:10438000032879D126E034B1802C04D03946284660
:10439000FFF71BF875E004F08000802808D104F0D6
:1043A0007F0000EB800105F1140000EB810007E0C5
:1043B00004F07F0000EB800105F5AA7000EB81009E
:1043C00080460020C8F80000022241462846FFF738
:1043D00029F856E004F0800080280ED104F00F0088
:1043E00000EB800105F1140000EB8100008A98B910
:1043F00039462846FEF7E9FF43E004F00F0000EBE2
:10440000800105F5AA7000EB8100008A20B93946C9
:104410002846FEF7DAFF34E004F08000802808D157
:1044200004F07F0000EB800105F1140000EB810037
:1044300007E004F07F0000EB800105F5AA7000EBB7
:10444000810080460CB1802C03D10020C8F8000008
:104450000CE021462846FFF7EDFB20B10120C8F80B
:10446000000003E008E00020C8F8000002224146F6
:104470002846FEF7D7FF04E039462846FEF7A5FF99
:1044800000BF00BF04E039462846FEF79EFF00BF8C
:1044900000BF04E039462846FEF797FF00BF00BF83
:1044A0004846BDE8F0872DE9F04105460E46002755
:1044B000307800F0600030B1202802D0402840D190
:1044C00000E000BF00BF95F89C02012804D002283C
:1044D00003D003282ED101E000BF00BF30790128AE
:1044E00023D831792846FEF755FF0446FF2C14D017
:1044F0009CB905F52E7050F82400806858B1C5F8B5
:10450000D44205F52E7050F82400314682682846C2
:104510009047074602E0032700E00327F08840B9F0
:104520003FB92846FEF78FFF03E031462846FEF7E5
:104530004CFF04E031462846FEF747FF00BF00BFAE
:1045400004E031462846FEF740FF00BF00BF384672
:10455000BDE8F08170470000014601487047000047
:104560002C0E002070B504460B4622461978587868
:1045700001282CD140F61C0080581D7805F00F064C
:104580000125B540ADB2284340F61C05A85002F500
:10459000106000EB4110006800F40040F0BB988907
:1045A000C0F30A001D7940EA854040EA815040F09E
:1045B000805040F4004002F5106505EB41152D6870
:1045C000284302F5106505EB411528602DE040F603
:1045D0001C0080581D7805F00F060125B540144ECB
:1045E00006EA0545284340F61C05A85002F5306050
:1045F00000EB4110006800F4004078B99889C0F3DE
:104600000A001D7940EA854040F0805040F40040A7
:1046100002F5306505EB41152D6800E005E0284303
:1046200002F5306505EB41152860002070BD0000E3
:104630000000FFFF01460A464FF410608058C30A8D
:10464000DB024FF41060835040F60400805840F4C1
:10465000807340F604008350002070470FB470B59B
:1046600004460A98012817D1A06B20F48030A0637B
:10467000E0681A490840E060E06820F44010E0601B
:104680001198012803D1E06840F48010E0602046D2
:1046900000F026F8054612E0E06840F04000E060D7
:1046A000204600F01DF805460E9820B9A06B40F496
:1046B0008030A06303E0A06B20F48030A0630898F2
:1046C000012807D1A06840F00600A060A06840F073
:1046D0002000A060284670BC5DF814FBBFFFBDFF42
:1046E00008B501460020009000BF0098401C0090D3
:1046F000104A0098904201D9032008BD086900F0D3
:1047000000400028F1D000200090086940F001002E
:10471000086100BF0098401C0090064A0098904233
:1047200001D90320E9E7086900F001000028F1D170
:1047300000BFE2E7400D030070B504460B46224679
:1047400019785878012848D102F5106000EB411023
:10475000006800F00040B0F1004F17D102F5106082
:1047600000EB4110006840F0006502F5106000EBBE
:104770004110056002F5106000EB4110006840F048
:10478000804502F5106000EB4110056040F63C00EA
:1047900080581D7805F00F060125B540ADB2A8433D
:1047A00040F63C05A85040F61C0080581D7805F0E6
:1047B0000F060125B540ADB2A84340F61C05A85030
:1047C00002F5106000EB411000682B4D284002F507
:1047D000106505EB411528604BE002F5306000EBF9
:1047E0004110006800F00040B0F1004F17D102F511
:1047F000306000EB4110006840F0006502F5306069
:1048000000EB4110056002F5306000EB41100068DC
:1048100040F0804502F5306000EB4110056040F645
:104820003C0080581D7805F00F060125B540134E59
:1048300006EA0545A84340F63C05A85040F61C0092
:104840008558187800F00F060120B0400B4E06EA9C
:104850000040854340F61C00855002F5306000EBB7
:1048600041100068064D284002F5306505EB411502
:104870002860002070BD0000007833EC0000FFFFCE
:104880000078F3EF01460A46D2F8000E20F003004C
:10489000C2F8000E40F60400805820F0020340F6F3
:1048A000040083500020704701460A46D2F8000EEB
:1048B00020F00300C2F8000E40F60400805840F0DB
:1048C000020340F604008350002070470FB4F0B597
:1048D000054600272E46002405E0002105F58270DC
:1048E00040F82410641C0F2CF7D31098A0B940F6A0
:1048F0000400805940F0020140F604008151A86B89
:1049000040F40010A863A86B20F40020A863A86BF3
:1049100020F48020A86307E0A86B20F40010A863AF
:10492000A86B40F40020A8630020C6F8000ED6F85B
:104930000008C6F800080B9801280BD1089820B988
:104940000021284600F0BCFD08E00121284600F0C7
:10495000B7FD03E00321284600F0B2FD10212846F0
:1049600000F0B2FC00B10127284600F083FC00B142
:10497000012700214FF401608151001D815140F653
:104980001C00815100242EE006F5106000EB44105D
:10499000006800F00040B0F1004F10D13CB94FF07A
:1049A000006106F5106000EB441001600DE04FF06F
:1049B000904106F5106000EB4410016005E0002115
:1049C00006F5106000EB44100160002106F5106050
:1049D00000EB441001614FF67F3106F5106000EBEB
:1049E00044108160641C0698A042CDD800242EE0BB
:1049F00006F5306000EB4410006800F00040B0F1B4
:104A0000004F10D13CB94FF0006106F5306000EB6B
:104A1000441001600DE04FF0904106F5306000EB6E
:104A20004410016005E0002106F5306000EB441001
:104A30000160002106F5306000EB441001614FF683
:104A40007F3106F5306000EB44108160641C0698ED
:104A5000A042CDD84FF40160805920F480714FF40A
:104A6000016081510020A8616FF080406861099861
:104A700018B9A86940F01000A861A869094908435D
:104A8000A8610C9818B1A86940F00800A8611098B6
:104A9000012803D1A86904490843A8613846F0BC3D
:104AA0005DF814FB00383C80040000400146886833
:104AB00020F001008860002070470000F0B5054636
:104AC0000B4614462A4619785878012875D19869FA
:104AD00020BB02F5106000EB411000696D4E3040C4
:104AE00002F5106606EB4116306102F5106000EB2E
:104AF0004110006940F4002602F5106000EB4110FF
:104B0000066102F5106000EB41100069C60CF60466
:104B100002F5106000EB4110066137E002F510600D
:104B200000EB41100069C60CF60402F5106000EBC2
:104B30004110066102F5106000EB41100069554E0E
:104B4000304002F5106606EB41163061DE68986968
:104B5000B04201D9D868986102F5106000EB4110AD
:104B6000006940F4002602F5106000EB4110066178
:104B700002F5106000EB411000699E69C6F3120651
:104B8000304302F5106606EB41163061012C15D159
:104B9000586928B102F5106000EB41105E6946616A
:104BA00002F5106000EB4110006840F0044602F589
:104BB000106000EB411006606AE01BE002F5106037
:104BC00000EB4110006840F0044602F5106000EB75
:104BD00041100660986900285AD040F63400805889
:104BE0001E7806F00F070126BE40304340F634061B
:104BF000B0504DE002F5306000EB41100069C60C8A
:104C0000F60402F5306000EB4110066102F53060F9
:104C100000EB411000691F4E304002F5306606EB94
:104C200041163061986908B1D8689861D868D86130
:104C300002F5306000EB4110006940F4002602F5F7
:104C4000306000EB4110066102F5306000EB41106E
:104C50000069DE69C6F31206304302F5306606EBE2
:104C600041163061012C07D1186928B102F5306076
:104C700000EB41101E69466102F5306000EB411007
:104C8000006840F0044602F5306000EB4110066019
:104C90000020F0BDFFFF07E070B503460C46194643
:104CA0001D6C1848854209D94FF43060405800F017
:104CB0000040B0F1004F01D1002070BD0026C1F8C6
:104CC000106BD1F8100B40F40026C1F8106BD1F82E
:104CD000100B40F01806C1F8106BD1F8100B40F023
:104CE000C046C1F8106B012C09D1C1F8142B4FF448
:104CF0003060405840F080264FF43060465000202D
:104D0000DBE700000A30544F30B504460B4622461C
:104D10001978587801281ED102F5106000EB411077
:104D2000006820F4001502F5106000EB41100560EA
:104D30001879032802D0187902282AD102F51060C8
:104D400000EB4110006840F0805502F5106000EB68
:104D5000411005601DE002F5306000EB4110006875
:104D600020F4001502F5306000EB41100560187961
:104D7000032802D0187902280BD102F5306000EB2D
:104D80004110006840F0805502F5306000EB4110A2
:104D90000560002030BD30B504460B462246197828
:104DA0005878012821D102F5106000EB411000680D
:104DB00000F0004060B959B102F5106000EB4110FD
:104DC000006820F0804502F5106000EB411005609E
:104DD00002F5106000EB4110006840F4001502F588
:104DE000106000EB4110056020E002F5306000EB40
:104DF0004110006800F0004060B959B102F5306020
:104E000000EB4110006820F0804502F5306000EBB7
:104E10004110056002F5306000EB4110006840F47D
:104E2000001502F5306000EB41100560002030BD38
:104E30002DE9F84381460E4617464D463478707882
:104E400001287DD1B06920BB05F5106000EB44104E
:104E50000069C849084005F5106101EB441108617B
:104E600005F5106000EB4410006940F4002105F5E1
:104E7000106000EB4410016105F5106000EB441078
:104E80000069C10CC90405F5106000EB4410016114
:104E900055E005F5106000EB44100069C10CC90431
:104EA00005F5106000EB4410016105F5106000EBA2
:104EB00044100069AF49084005F5106101EB441149
:104EC0000861F168B0690844401EB0FBF1F0A949DF
:104ED000C94301EAC04005F5106101EB44110969BD
:104EE000084305F5106101EB4411086105F51060F8
:104EF00000EB44100069B169C1F31201084305F5E4
:104F0000106101EB441108613079012817D105F5D2
:104F1000106000EB4410006920F0C04105F51060FE
:104F200000EB4410016105F5106000EB44100069CE
:104F300040F0005105F5106000EB4410016100E005
:104F40007FE0012F36D1706928B105F5106000EBC4
:104F5000441071694161307901281ED140F6080082
:104F6000405900F4807060B905F5106000EB441002
:104F7000006840F0005105F5106000EB441001603E
:104F80000BE005F5106000EB4410006840F0805124
:104F900005F5106000EB4410016005F5106000EBB2
:104FA0004410006840F0044105F5106000EB441027
:104FB0000160DCE005F5106000EB4410006840F093
:104FC000044105F5106000EB4410016030790128C0
:104FD0000FD0B0690028ECD040F634004059317849
:104FE00001F00F0201219140084340F6340148517D
:104FF000BDE040F60800405900F4807060B905F546
:10500000106000EB4410006840F0005105F510609E
:1050100000EB441001600BE005F5106000EB44105C
:10502000006840F0805105F5106000EB441001600D
:105030000097308B83B232784846316900F0BEFA6F
:1050400095E005F5306000EB44100069C10CC9041F
:1050500005F5306000EB4410016105F5306000EBB0
:10506000441000694349084005F5306101EB4411E3
:105070000861B069D0B905F5306000EB44100069F3
:10508000F168C1F31201084305F5306101EB4411E9
:10509000086105F5306000EB4410006940F4002120
:1050A00005F5306000EB4410016128E0F168B0695B
:1050B0000844401EB0FBF1F01FFA80F8F06800FBD6
:1050C00008F0F06105F5306000EB441000692949F3
:1050D000C94301EAC841084305F5306101EB4411B9
:1050E000086105F5306000EB44100069F169C1F317
:1050F0001201084305F5306101EB44110861012FED
:1051000007D1306928B105F5306000EB44103169F2
:105110004161307901281ED140F60800405900F461
:10512000807060B905F5306000EB4410006840F015
:10513000005105F5306000EB441001600BE005F50F
:10514000306000EB4410006840F0805105F530609D
:1051500000EB4410016005F5306000EB441000687E
:1051600040F0044105F5306000EB44100160002080
:10517000BDE8F883FFFF07E078B5034600240094FC
:1051800000201A464C78012C35D10C7802F51065B8
:1051900005EB4414246804F00044B4F1004F60D1DE
:1051A0000C7805EB4414246844F000660C7805EB99
:1051B000441426600C7805EB4414246844F08046BF
:1051C0000C7805EB4414266000BF009C641C00941E
:1051D00042F21075009CAC4201D901200AE00C7823
:1051E00002F5106505EB4414246804F00044B4F1A2
:1051F000004FEAD035E00C7802F5306505EB441439
:10520000246804F00044B4F1004F2AD10C7805EB77
:105210004414246844F000660C7805EB44142660BE
:105220000C7805EB4414246844F080460C7805EBB8
:105230004414266000BF009C641C009442F2107568
:10524000009CAC4201D901200AE00C7802F53065DF
:1052500005EB4414246804F00044B4F1004FEAD094
:1052600000BF78BD0146886840F0010088600020DA
:105270007047000008B501460020009000BF00986C
:10528000401C00900F4A0098904201D9032008BDAD
:10529000086900F000400028F1D0002000901020A4
:1052A000086100BF0098401C0090064A0098904298
:1052B00001D90320EBE7086900F010001028F1D0B5
:1052C0000020E4E7400D030008B5024600200090EE
:1052D00000BF0098401C0090104B0098984201D9E4
:1052E000032008BD106900F000400028F1D0002024
:1052F0000090202040EA8110106100BF0098401CFF
:105300000090064B0098984201D90320E9E7106904
:1053100000F020002028F1D00020E2E7400D03003B
:1053200010B501460B4640F60804E45804F00602A6
:105330000AB9002006E0022A01D0062A01D1022083
:1053400000E00F2010BD0146486900F001007047E1
:1053500001460B4640F61800C258001DC0580240D6
:1053600090B2704701460B4640F61800C258001D27
:10537000C0580240100C704770B5024613464FF4F7
:105380000166F45840F63406F55801F00F0625FA88
:1053900006F606F0010644EAC61403F5106606EBAD
:1053A0004116B66806EA040070BD10B50246134601
:1053B00003F5306404EB4114A06840F61404E4588B
:1053C000204010BD014648698A69104070472DE9A8
:1053D000F04104460D46274628464FEA920C02F05B
:1053E000030300210AE04FF4805858F80780C0F802
:1053F0000080401C401C401C401C491C6145F2D3ED
:105400009BB100214FF4805858F8076000BF4FEA65
:10541000C10826FA08F880F80080491C401CA3F156
:1054200001081FFA88F3002BF1D1BDE8F08170B5B7
:1054300004460E460025E06820F0C040E060012EE2
:1054400010D1E06840F00050E06000BF0120FBF7A1
:10545000CBF86D1C2046FFF776FF012815D0322DC2
:10546000F4D312E07EB9E06840F08040E06000BF15
:105470000120FBF7B9F86D1C2046FFF764FF20B14F
:10548000322DF5D301E0012070BD322D01D1012074
:10549000FAE70020F8E710B502460B461146D1F8AE
:1054A000000820F4FE60C1F80008D1F800084FF4AD
:1054B000FE6404EA03142043C1F80008002010BD74
:1054C00002461346D3F800080843C3F8000800203A
:1054D0007047000030B503461446022C49D12D48D0
:1054E000814204D32C48814201D20F2245E02A4850
:1054F000814204D32948814201D20E223DE027484F
:10550000814204D32648814201D20D2235E024484D
:10551000814204D32348814201D20C222DE021484C
:10552000814204D32048814201D20B2225E01E484B
:10553000814204D31D48814201D20A221DE01B484A
:10554000814204D31A48814201D2092215E0184849
:10555000814204D31748814201D208220DE0154848
:10556000814204D31448814201D2072205E0062279
:1055700003E00CB9092200E00922D86820F4705039
:10558000D860D8684FF4705505EA82252843D86062
:10559000002030BDC0ACD800C0E1E4000024F4001D
:1055A00080730601A0491A01002D310140A44C016D
:1055B00000366E0120ABA6010048E8012DE9F0435A
:1055C00004460D461E46DDF81CC0A0462946BCF127
:1055D000000F12D1F01C870800230CE0D1F80090D6
:1055E00008F5805000EB0230C0F80090491C491CBF
:1055F000491C491C5B1CBB42F0D30020BDE8F08372
:1056000000BFFEE702480068C0F3022070470000B8
:105610000CED00E010B5002804DB0A07130E054A64
:10562000135406E00A07140E034A00F00F031B1F71
:10563000D45410BD00E400E018ED00E00EB5FBF717
:1056400015FBFDF707FBFCF7FBFFFDF7B5F8FDF7D2
:1056500077F8FDF793F800F0EDF8FDF761FBFAF746
:105660004BFF0020029042E0002303E0D8B2FDF798
:1056700005FA5B1C042BF9DBFAF74EFF09221C49E3
:105680001C48FDF75DFDFAF737FF09221849194854
:10569000FDF756FD002000F0BDF801202021CDE9E6
:1056A00000109DF80900144951F8202080230021A2
:1056B000084600F023F800F041F99DF80800401C6E
:1056C000C0B28DF808009DF8080005280FD1002011
:1056D0008DF808009DF80900401CC0B28DF8090043
:1056E0009DF80900062802D100208DF80900BBE7CB
:1056F0002800002044040020100000202DE9F84F6D
:1057000005460E4691461F46DDF828B0F81DC11724
:1057100000EB5171C91009B200914FF0000A802DC1
:1057200001DA202E01DBBDE8F88F4FF0000826E0FB
:1057300000241CE004F0070020B14FEA4A604FEA61
:10574000106A09E02046E11704EB5171CA10009974
:1057500008FB012119F801A00AF0800028B12919DD
:10576000C8B231460B9A00F00FF8601CC4B2BC42BC
:10577000E0DB08F1010000F0FF08701CC6B2D8455C
:10578000D6DB00BFCFE70000F0B503461446802B00
:1057900001DA202900DBF0BD012C1CD1CD1701EB73
:1057A0005575ED1003EBC515194E755D0A46CE17FC
:1057B00001EB5676F610A1EBC6070126BE40354335
:1057C000EEB20846CD1701EB5575ED1003EBC5158C
:1057D0000F4F7E551AE0CD1701EB5575ED1003EB19
:1057E000C5150B4E755D0A46CE1701EB5676F610C1
:1057F000A1EBC6070126BE40B5430846CE1701EB14
:105800005676F61003EBC616014FBD5500BFC2E732
:10581000440200200146002006E009B9002200E011
:10582000FF22034B1A54401CB0F5007FF5D370479C
:105830004402002010B500F063F86420FAF7D4FEAB
:10584000002000F069F8202000F094F8002000F01B
:1058500091F8B02000F08EF8C82000F08BF80020FE
:1058600000F088F8102000F085F8402000F082F861
:10587000FF2000F046F8A12000F07CF8A62000F000
:1058800079F8A82000F076F81F2000F073F8A42023
:1058900000F070F8D32000F06DF8002000F06AF8F6
:1058A000D52000F067F8F02000F064F8D92000F06F
:1058B00061F8222000F05EF8DA2000F05BF80220A8
:1058C00000F058F8DB2000F055F8202000F052F8E6
:1058D0008D2000F04FF8142000F04CF8012000F06B
:1058E0001BF80020FFF796FF00F028F8002003497E
:1058F000088048800120087110BD00003C00002095
:10590000704770B504468125812000F033F82046A9
:1059100000F030F870BD000070B5054625B1AF2429
:1059200001200549487103E0AE2400200249487176
:10593000204600F01FF870BD3C00002010B5002488
:1059400013E004F1B001C8B200F014F8002000F038
:1059500011F8102000F00EF80549802202FB041017
:10596000114600F01BF8601CC4B2042CE9DB10BD2A
:105970004402002001B584B04FF0FF30012104AA99
:105980000B46CDE900210290002278210248FBF766
:1059900017F805B000BD00009C0100203EB504468C
:1059A0000D464FF0FF31A8B201234022CDE900405F
:1059B000029178210148FBF703F83EBD9C010020CD
:1059C0004FF04070E1EE100A704700000000000048
:1059D00000000C00000000000000000000000000BB
:1059E00000000700000000000000000000000000B0
:1059F000000009C0000000000000000000000000DE
:105A00000000187D80000000000000000000000081
:105A100000007017FF0008000000000000000000F8
:105A20000003C0000DFFF8000000000000000000AF
:105A300000078000000F8C00000000000000000044
:105A4000000C000000000C0000000000000000003E
:105A50000010000000000400000000000000000032
:105A60000030000000000C000000000000000000FA
:105A70000060000000080C000000000000000000B2
:105A80003FC00000007F0C0000000000000000008C
:105A900063C0700000C0860000000000000000002D
:105AA000C020700218800300000000000000000009
:105AB00080000672190001000000000000000001D3
:105AC000800003DE018400C0000000000000000030
:105AD00086000000018400E00000000000000000DB
